{
  "contractName": "DSSResolver",
  "abi": [
    {
      "inputs": [
        {
          "internalType": "contract DSSRegistry",
          "name": "registry",
          "type": "address"
        }
      ],
      "stateMutability": "nonpayable",
      "type": "constructor"
    },
    {
      "anonymous": false,
      "inputs": [
        {
          "indexed": true,
          "internalType": "uint256",
          "name": "tokenId",
          "type": "uint256"
        },
        {
          "indexed": true,
          "internalType": "address",
          "name": "authorized",
          "type": "address"
        },
        {
          "indexed": true,
          "internalType": "bytes32",
          "name": "keyHash",
          "type": "bytes32"
        },
        {
          "indexed": false,
          "internalType": "string",
          "name": "key",
          "type": "string"
        }
      ],
      "name": "Authorized",
      "type": "event"
    },
    {
      "anonymous": false,
      "inputs": [
        {
          "indexed": true,
          "internalType": "uint256",
          "name": "preset",
          "type": "uint256"
        },
        {
          "indexed": false,
          "internalType": "string",
          "name": "key",
          "type": "string"
        },
        {
          "indexed": false,
          "internalType": "string",
          "name": "value",
          "type": "string"
        },
        {
          "indexed": true,
          "internalType": "uint256",
          "name": "tokenId",
          "type": "uint256"
        }
      ],
      "name": "Set",
      "type": "event"
    },
    {
      "anonymous": false,
      "inputs": [
        {
          "indexed": true,
          "internalType": "uint256",
          "name": "preset",
          "type": "uint256"
        },
        {
          "indexed": true,
          "internalType": "uint256",
          "name": "tokenId",
          "type": "uint256"
        }
      ],
      "name": "SetPreset",
      "type": "event"
    },
    {
      "inputs": [
        {
          "internalType": "string",
          "name": "key",
          "type": "string"
        },
        {
          "internalType": "uint256",
          "name": "tokenId",
          "type": "uint256"
        }
      ],
      "name": "get",
      "outputs": [
        {
          "internalType": "string",
          "name": "",
          "type": "string"
        }
      ],
      "stateMutability": "view",
      "type": "function"
    },
    {
      "inputs": [
        {
          "internalType": "string[]",
          "name": "keys",
          "type": "string[]"
        },
        {
          "internalType": "uint256",
          "name": "tokenId",
          "type": "uint256"
        }
      ],
      "name": "getMany",
      "outputs": [
        {
          "internalType": "string[]",
          "name": "",
          "type": "string[]"
        }
      ],
      "stateMutability": "view",
      "type": "function"
    },
    {
      "inputs": [
        {
          "internalType": "uint256",
          "name": "tokenId",
          "type": "uint256"
        }
      ],
      "name": "presetOf",
      "outputs": [
        {
          "internalType": "uint256",
          "name": "",
          "type": "uint256"
        }
      ],
      "stateMutability": "view",
      "type": "function"
    },
    {
      "inputs": [],
      "name": "registry",
      "outputs": [
        {
          "internalType": "address",
          "name": "",
          "type": "address"
        }
      ],
      "stateMutability": "view",
      "type": "function"
    },
    {
      "inputs": [
        {
          "internalType": "uint256",
          "name": "tokenId",
          "type": "uint256"
        }
      ],
      "name": "reset",
      "outputs": [],
      "stateMutability": "nonpayable",
      "type": "function"
    },
    {
      "inputs": [
        {
          "internalType": "string[]",
          "name": "keys",
          "type": "string[]"
        },
        {
          "internalType": "string[]",
          "name": "values",
          "type": "string[]"
        },
        {
          "internalType": "uint256",
          "name": "tokenId",
          "type": "uint256"
        }
      ],
      "name": "setMany",
      "outputs": [],
      "stateMutability": "nonpayable",
      "type": "function"
    },
    {
      "inputs": [
        {
          "internalType": "string",
          "name": "key",
          "type": "string"
        },
        {
          "internalType": "string",
          "name": "value",
          "type": "string"
        },
        {
          "internalType": "uint256",
          "name": "tokenId",
          "type": "uint256"
        }
      ],
      "name": "set",
      "outputs": [],
      "stateMutability": "nonpayable",
      "type": "function"
    },
    {
      "inputs": [
        {
          "internalType": "string",
          "name": "key",
          "type": "string"
        },
        {
          "internalType": "uint256",
          "name": "tokenId",
          "type": "uint256"
        },
        {
          "internalType": "address",
          "name": "target",
          "type": "address"
        }
      ],
      "name": "authorize",
      "outputs": [],
      "stateMutability": "nonpayable",
      "type": "function"
    },
    {
      "inputs": [
        {
          "internalType": "string",
          "name": "key",
          "type": "string"
        },
        {
          "internalType": "uint256",
          "name": "tokenId",
          "type": "uint256"
        },
        {
          "internalType": "address",
          "name": "target",
          "type": "address"
        }
      ],
      "name": "isAuthorized",
      "outputs": [
        {
          "internalType": "bool",
          "name": "",
          "type": "bool"
        }
      ],
      "stateMutability": "view",
      "type": "function"
    }
  ],
  "bytecode": "0x608060405234801561001057600080fd5b5060405161141238038061141283398101604081905261002f91610054565b600080546001600160a01b0319166001600160a01b0392909216919091179055610082565b600060208284031215610065578081fd5b81516001600160a01b038116811461007b578182fd5b9392505050565b611381806100916000396000f3fe608060405234801561001057600080fd5b50600436106100a35760003560e01c80637a9eea46116100765780638136cf841161005b5780638136cf841461014e578063a85cadc314610161578063ce92b33e14610181576100a3565b80637a9eea46146101195780637b10399914610139576100a3565b80631bd8cc1a146100a85780631be5e7ed146100d1578063310bd74b146100f157806347c8169914610106575b600080fd5b6100bb6100b6366004610db0565b610194565b6040516100c89190611059565b60405180910390f35b6100e46100df366004610f20565b6103da565b6040516100c891906110e2565b6101046100ff366004610fbc565b610574565b005b610104610114366004610eaf565b610634565b61012c610127366004610fbc565b6107ca565b6040516100c89190611271565b6101416107dc565b6040516100c8919061102c565b61010461015c366004610f63565b6107ec565b61017461016f366004610f63565b6109a7565b6040516100c891906110d7565b61010461018f366004610e25565b610a0f565b6000546040517fb3f9e4cb00000000000000000000000000000000000000000000000000000000815260609183916001600160a01b039091169063b3f9e4cb906101e2908490600401611271565b60206040518083038186803b1580156101fa57600080fd5b505afa15801561020e573d6000803e3d6000fd5b505050506040513d601f19601f820116820180604052508101906102329190610d8d565b6001600160a01b0316306001600160a01b03161461026b5760405162461bcd60e51b8152600401610262906111dd565b60405180910390fd5b8360608167ffffffffffffffff8111801561028557600080fd5b506040519080825280602002602001820160405280156102b957816020015b60608152602001906001900390816102a45790505b506000868152600260205260408120549192505b838110156103cd57600087815260016020908152604080832085845290915290208989838181106102fa57fe5b905060200281019061030c919061127a565b60405161031a929190611000565b9081526040805160209281900383018120805460026001821615610100026000190190911604601f810185900485028301850190935282825290929091908301828280156103a95780601f1061037e576101008083540402835291602001916103a9565b820191906000526020600020905b81548152906001019060200180831161038c57829003601f168201915b50505050508382815181106103ba57fe5b60209081029190910101526001016102cd565b5090979650505050505050565b6000546040517fb3f9e4cb00000000000000000000000000000000000000000000000000000000815260609183916001600160a01b039091169063b3f9e4cb90610428908490600401611271565b60206040518083038186803b15801561044057600080fd5b505afa158015610454573d6000803e3d6000fd5b505050506040513d601f19601f820116820180604052508101906104789190610d8d565b6001600160a01b0316306001600160a01b0316146104a85760405162461bcd60e51b8152600401610262906111dd565b6000838152600160209081526040808320600283528184205484529091529081902090516104d7908690611010565b9081526040805160209281900383018120805460026001821615610100026000190190911604601f810185900485028301850190935282825290929091908301828280156105665780601f1061053b57610100808354040283529160200191610566565b820191906000526020600020905b81548152906001019060200180831161054957829003601f168201915b505050505091505092915050565b60005460405163430c208160e01b81526001600160a01b039091169063430c2081906105a69033908590600401611040565b60206040518083038186803b1580156105be57600080fd5b505afa1580156105d2573d6000803e3d6000fd5b505050506040513d601f19601f820116820180604052508101906105f69190610e8f565b8061060b57506000546001600160a01b031633145b6106275760405162461bcd60e51b815260040161026290611214565b6106314282610aba565b50565b60008585604051602001610649929190611000565b60408051601f1981840301815290829052805160209091012060005463430c208160e01b83529092506001600160a01b03169063430c2081906106929033908690600401611040565b60206040518083038186803b1580156106aa57600080fd5b505afa1580156106be573d6000803e3d6000fd5b505050506040513d601f19601f820116820180604052508101906106e29190610e8f565b8061071d575060008281526003602090815260408083206002835281842054845282528083208484529091529020546001600160a01b031633145b6107395760405162461bcd60e51b815260040161026290611180565b6107c2600260008481526020019081526020016000205487878080601f01602080910402602001604051908101604052809392919081815260200183838082843760009201919091525050604080516020601f8b018190048102820181019092528981529250899150889081908401838280828437600092019190915250889250610af9915050565b505050505050565b60009081526002602052604090205490565b6000546001600160a01b03165b90565b60005460405163430c208160e01b81526001600160a01b039091169063430c20819061081e9033908690600401611040565b60206040518083038186803b15801561083657600080fd5b505afa15801561084a573d6000803e3d6000fd5b505050506040513d601f19601f8201168201806040525081019061086e9190610e8f565b61088a5760405162461bcd60e51b815260040161026290611180565b60008360405160200161089d9190611010565b60408051808303601f1901815291815281516020928301206000868152600384528281206002855283822054825284528281208282529093529120549091506001600160a01b03838116911614156109075760405162461bcd60e51b815260040161026290611123565b60008381526003602090815260408083206002835281842054845282528083208484529091529081902080547fffffffffffffffffffffffff0000000000000000000000000000000000000000166001600160a01b038516908117909155905182919085907f21e3129d7874c677e680d9f51b9e5aae3f4bb29688fd1d2d476daaf70ad6fe78906109999089906110e2565b60405180910390a450505050565b600080846040516020016109bb9190611010565b60408051601f19818403018152918152815160209283012060008781526003845282812060028552838220548252845282812091815292529020546001600160a01b03908116908416149150509392505050565b60005460405163430c208160e01b81526001600160a01b039091169063430c208190610a419033908590600401611040565b60206040518083038186803b158015610a5957600080fd5b505afa158015610a6d573d6000803e3d6000fd5b505050506040513d601f19601f82011682018060405250810190610a919190610e8f565b610a9a57600080fd5b600081815260026020526040902054610ab590848484610b87565b505050565b60008181526002602052604080822084905551829184917fbfc300c1fa899f7ccfe35f4b00db10276968e3555c53921db20c8b82e97bc3209190a35050565b6000818152600160209081526040808320878452909152908190209051839190610b24908690611010565b90815260200160405180910390209080519060200190610b45929190610bce565b5080847f531c34f1430b76d953b041b6ae19c2d0a9c4ed1c570242b24c147ace27ab6ef38585604051610b799291906110f5565b60405180910390a350505050565b825160005b818110156107c257610bc686868381518110610ba457fe5b6020026020010151868481518110610bb857fe5b602002602001015186610af9565b600101610b8c565b828054600181600116156101000203166002900490600052602060002090601f016020900481019282601f10610c0f57805160ff1916838001178555610c3c565b82800160010185558215610c3c579182015b82811115610c3c578251825591602001919060010190610c21565b50610c48929150610c4c565b5090565b6107e991905b80821115610c485760008155600101610c52565b600082601f830112610c76578081fd5b813567ffffffffffffffff811115610c8c578182fd5b6020610c9b81828402016112df565b828152925080830184820160005b84811015610cd257610cc0888584358a0101610d24565b83529183019190830190600101610ca9565b505050505092915050565b60008083601f840112610cee578182fd5b50813567ffffffffffffffff811115610d05578182fd5b602083019150836020828501011115610d1d57600080fd5b9250929050565b600082601f830112610d34578081fd5b813567ffffffffffffffff811115610d4a578182fd5b610d5d6020601f19601f840116016112df565b9150808252836020828501011115610d7457600080fd5b8060208401602084013760009082016020015292915050565b600060208284031215610d9e578081fd5b8151610da981611336565b9392505050565b600080600060408486031215610dc4578182fd5b833567ffffffffffffffff80821115610ddb578384fd5b81860187601f820112610dec578485fd5b8035925081831115610dfc578485fd5b8760208085028301011115610e0f578485fd5b6020908101989297509590950135945092505050565b600080600060608486031215610e39578283fd5b833567ffffffffffffffff80821115610e50578485fd5b610e5c87838801610c66565b94506020860135915080821115610e71578384fd5b50610e7e86828701610c66565b925050604084013590509250925092565b600060208284031215610ea0578081fd5b81518015158114610da9578182fd5b600080600080600060608688031215610ec6578081fd5b853567ffffffffffffffff80821115610edd578283fd5b610ee989838a01610cdd565b90975095506020880135915080821115610f01578283fd5b50610f0e88828901610cdd565b96999598509660400135949350505050565b60008060408385031215610f32578182fd5b823567ffffffffffffffff811115610f48578283fd5b610f5485828601610d24565b95602094909401359450505050565b600080600060608486031215610f77578283fd5b833567ffffffffffffffff811115610f8d578384fd5b610f9986828701610d24565b935050602084013591506040840135610fb181611336565b809150509250925092565b600060208284031215610fcd578081fd5b5035919050565b60008151808452610fec816020860160208601611306565b601f01601f19169290920160200192915050565b6000828483379101908152919050565b60008251611022818460208701611306565b9190910192915050565b6001600160a01b0391909116815260200190565b6001600160a01b03929092168252602082015260400190565b6000602080830181845280855180835260408601915060408482028701019250838701855b828110156110ca577fffffffffffffffffffffffffffffffffffffffffffffffffffffffffffffffc08886030184526110b8858351610fd4565b9450928501929085019060010161107e565b5092979650505050505050565b901515815260200190565b600060208252610da96020830184610fd4565b6000604082526111086040830185610fd4565b828103602084015261111a8185610fd4565b95945050505050565b6020808252603d908201527f546172676574206164647265737320697320616c726561647920617574686f7260408201527f697a656420746f206368616e67652074686174206b65792076616c7565000000606082015260800190565b60208082526034908201527f53656e646572206973206e6f7420617574686f72697a656420746f206368616e60408201527f67652076616c7565206f662074686174206b6579000000000000000000000000606082015260800190565b6020808252601d908201527f5265736f6c7665723a206973206e6f7420746865207265736f6c766572000000604082015260600190565b60208082526036908201527f4e6f74206170726f7665642c206f776e6572206f722045524337323120636f6e60408201527f747261637420746f207265736574207072657365747300000000000000000000606082015260800190565b90815260200190565b60008083357fffffffffffffffffffffffffffffffffffffffffffffffffffffffffffffffe18436030181126112ae578283fd5b8084018035925067ffffffffffffffff8311156112c9578384fd5b60200192505036819003821315610d1d57600080fd5b60405181810167ffffffffffffffff811182821017156112fe57600080fd5b604052919050565b60005b83811015611321578181015183820152602001611309565b83811115611330576000848401525b50505050565b6001600160a01b038116811461063157600080fdfea26469706673582212205d5efd2608f2416e03d57e6922618f73ac3c974515225c2ebc8a07a367d0f40f64736f6c63430006060033",
  "immutableReferences": {},
  "source": "pragma solidity ^0.6.6;\npragma experimental ABIEncoderV2;\nimport \"./Resolver.sol\";\n\n\ncontract DSSResolver is Resolver {\n\n  // Mapping from tokenId to token presets to key hash to address authorized to set key value\n  mapping(uint256 => mapping(uint256 => mapping(bytes32 => address))) internal authorized;\n\n  event Authorized(uint256 indexed tokenId,address indexed authorized,bytes32 indexed keyHash,string key);\n\n\n\n  constructor(DSSRegistry registry) public Resolver(registry){\n\n  }\n\n\n  /**\n   * @dev Function to set record.\n   * @param key The key set the value of.\n   * @param value The value to set key to.\n   * @param tokenId The token id to set.\n   */\n  function set(string calldata key, string calldata value, uint256 tokenId) external {\n      bytes32 keyHash = keccak256(abi.encodePacked(key));\n      require(_registry.isApprovedOrOwner(msg.sender, tokenId) || msg.sender == authorized[tokenId][_tokenPresets[tokenId]][keyHash],\n              \"Sender is not authorized to change value of that key\");\n      _set(_tokenPresets[tokenId], key, value, tokenId);\n  }\n  /**\n   * @dev Function to authorize address to change specific record's key.\n   *      To remove allowance token's owner must authorize for his wallet address or '0x0000000000000000000000000000000000000000'.\n   * @param key The key allowed to be changed.\n   * @param tokenId The token id to set.\n   * @param target Wallet address allowed to change key's value\n   */\n  function authorize(string memory key,uint256 tokenId,address target) public {\n    require(_registry.isApprovedOrOwner(msg.sender, tokenId),\n            \"Sender is not authorized to change value of that key\");\n    bytes32 keyHash = keccak256(abi.encodePacked(key));\n    require(authorized[tokenId][_tokenPresets[tokenId]][keyHash] != target,\n            \"Target address is already authorized to change that key value\");\n    authorized[tokenId][_tokenPresets[tokenId]][keyHash] = target;\n    Authorized(tokenId,target,keyHash,key);\n  }\n\n  function isAuthorized(string memory key,uint256 tokenId,address target) public view returns(bool){\n    bytes32 keyHash = keccak256(abi.encodePacked(key));\n    return(authorized[tokenId][_tokenPresets[tokenId]][keyHash] == target);\n  }\n}\n",
  "sourcePath": "/home/henrique/projects/DSS/ERC721_project/dss-smart-contracts/contracts/DSSResolver.sol",
  "compiler": {
    "name": "solc",
    "version": "0.6.6+commit.6c089d02.Emscripten.clang"
  },
  "schemaVersion": "3.2.0",
  "updatedAt": "2020-08-25T15:46:47.090Z",
  "devdoc": {
    "methods": {
      "authorize(string,uint256,address)": {
        "details": "Function to authorize address to change specific record's key.     To remove allowance token's owner must authorize for his wallet address or '0x0000000000000000000000000000000000000000'.",
        "params": {
          "key": "The key allowed to be changed.",
          "target": "Wallet address allowed to change key's value",
          "tokenId": "The token id to set."
        }
      },
      "get(string,uint256)": {
        "details": "Function to get record.",
        "params": {
          "key": "The key to query the value of.",
          "tokenId": "The token id to fetch."
        },
        "returns": {
          "_0": "The value string."
        }
      },
      "getMany(string[],uint256)": {
        "details": "Function to get multiple record.",
        "params": {
          "keys": "The keys to query the value of.",
          "tokenId": "The token id to fetch."
        },
        "returns": {
          "_0": "The values."
        }
      },
      "set(string,string,uint256)": {
        "details": "Function to set record.",
        "params": {
          "key": "The key set the value of.",
          "tokenId": "The token id to set.",
          "value": "The value to set key to."
        }
      }
    }
  },
  "userdoc": {
    "methods": {}
  }
}