{
  "contractName": "ItemsERC721",
  "abi": [
    {
      "inputs": [
        {
          "internalType": "string",
          "name": "name",
          "type": "string"
        },
        {
          "internalType": "string",
          "name": "symbol",
          "type": "string"
        }
      ],
      "stateMutability": "nonpayable",
      "type": "constructor"
    },
    {
      "anonymous": false,
      "inputs": [
        {
          "indexed": true,
          "internalType": "address",
          "name": "owner",
          "type": "address"
        },
        {
          "indexed": true,
          "internalType": "address",
          "name": "approved",
          "type": "address"
        },
        {
          "indexed": true,
          "internalType": "uint256",
          "name": "tokenId",
          "type": "uint256"
        }
      ],
      "name": "Approval",
      "type": "event"
    },
    {
      "anonymous": false,
      "inputs": [
        {
          "indexed": true,
          "internalType": "address",
          "name": "owner",
          "type": "address"
        },
        {
          "indexed": true,
          "internalType": "address",
          "name": "operator",
          "type": "address"
        },
        {
          "indexed": false,
          "internalType": "bool",
          "name": "approved",
          "type": "bool"
        }
      ],
      "name": "ApprovalForAll",
      "type": "event"
    },
    {
      "anonymous": false,
      "inputs": [
        {
          "indexed": false,
          "internalType": "address",
          "name": "from",
          "type": "address"
        },
        {
          "indexed": true,
          "internalType": "address",
          "name": "to",
          "type": "address"
        },
        {
          "indexed": false,
          "internalType": "uint256",
          "name": "tokenId",
          "type": "uint256"
        }
      ],
      "name": "Minted",
      "type": "event"
    },
    {
      "anonymous": false,
      "inputs": [
        {
          "indexed": true,
          "internalType": "uint256",
          "name": "tokenId",
          "type": "uint256"
        },
        {
          "indexed": true,
          "internalType": "address",
          "name": "to",
          "type": "address"
        }
      ],
      "name": "Resolve",
      "type": "event"
    },
    {
      "anonymous": false,
      "inputs": [
        {
          "indexed": false,
          "internalType": "address",
          "name": "resolver",
          "type": "address"
        }
      ],
      "name": "ResolverDefined",
      "type": "event"
    },
    {
      "anonymous": false,
      "inputs": [
        {
          "indexed": true,
          "internalType": "bytes32",
          "name": "role",
          "type": "bytes32"
        },
        {
          "indexed": true,
          "internalType": "bytes32",
          "name": "previousAdminRole",
          "type": "bytes32"
        },
        {
          "indexed": true,
          "internalType": "bytes32",
          "name": "newAdminRole",
          "type": "bytes32"
        }
      ],
      "name": "RoleAdminChanged",
      "type": "event"
    },
    {
      "anonymous": false,
      "inputs": [
        {
          "indexed": true,
          "internalType": "bytes32",
          "name": "role",
          "type": "bytes32"
        },
        {
          "indexed": true,
          "internalType": "address",
          "name": "account",
          "type": "address"
        },
        {
          "indexed": true,
          "internalType": "address",
          "name": "sender",
          "type": "address"
        }
      ],
      "name": "RoleGranted",
      "type": "event"
    },
    {
      "anonymous": false,
      "inputs": [
        {
          "indexed": true,
          "internalType": "bytes32",
          "name": "role",
          "type": "bytes32"
        },
        {
          "indexed": true,
          "internalType": "address",
          "name": "account",
          "type": "address"
        },
        {
          "indexed": true,
          "internalType": "address",
          "name": "sender",
          "type": "address"
        }
      ],
      "name": "RoleRevoked",
      "type": "event"
    },
    {
      "anonymous": false,
      "inputs": [
        {
          "indexed": true,
          "internalType": "address",
          "name": "from",
          "type": "address"
        },
        {
          "indexed": true,
          "internalType": "address",
          "name": "to",
          "type": "address"
        },
        {
          "indexed": true,
          "internalType": "uint256",
          "name": "tokenId",
          "type": "uint256"
        }
      ],
      "name": "Transfer",
      "type": "event"
    },
    {
      "inputs": [],
      "name": "DEFAULT_ADMIN_ROLE",
      "outputs": [
        {
          "internalType": "bytes32",
          "name": "",
          "type": "bytes32"
        }
      ],
      "stateMutability": "view",
      "type": "function",
      "constant": true
    },
    {
      "inputs": [],
      "name": "MINTER_ROLE",
      "outputs": [
        {
          "internalType": "bytes32",
          "name": "",
          "type": "bytes32"
        }
      ],
      "stateMutability": "view",
      "type": "function",
      "constant": true
    },
    {
      "inputs": [],
      "name": "RESOLVER_ADDRESS",
      "outputs": [
        {
          "internalType": "address",
          "name": "",
          "type": "address"
        }
      ],
      "stateMutability": "view",
      "type": "function",
      "constant": true
    },
    {
      "inputs": [
        {
          "internalType": "address",
          "name": "to",
          "type": "address"
        },
        {
          "internalType": "uint256",
          "name": "tokenId",
          "type": "uint256"
        }
      ],
      "name": "approve",
      "outputs": [],
      "stateMutability": "nonpayable",
      "type": "function"
    },
    {
      "inputs": [
        {
          "internalType": "address",
          "name": "owner",
          "type": "address"
        }
      ],
      "name": "balanceOf",
      "outputs": [
        {
          "internalType": "uint256",
          "name": "",
          "type": "uint256"
        }
      ],
      "stateMutability": "view",
      "type": "function",
      "constant": true
    },
    {
      "inputs": [],
      "name": "baseURI",
      "outputs": [
        {
          "internalType": "string",
          "name": "",
          "type": "string"
        }
      ],
      "stateMutability": "view",
      "type": "function",
      "constant": true
    },
    {
      "inputs": [
        {
          "internalType": "uint256",
          "name": "tokenId",
          "type": "uint256"
        }
      ],
      "name": "getApproved",
      "outputs": [
        {
          "internalType": "address",
          "name": "",
          "type": "address"
        }
      ],
      "stateMutability": "view",
      "type": "function",
      "constant": true
    },
    {
      "inputs": [
        {
          "internalType": "bytes32",
          "name": "role",
          "type": "bytes32"
        }
      ],
      "name": "getRoleAdmin",
      "outputs": [
        {
          "internalType": "bytes32",
          "name": "",
          "type": "bytes32"
        }
      ],
      "stateMutability": "view",
      "type": "function",
      "constant": true
    },
    {
      "inputs": [
        {
          "internalType": "bytes32",
          "name": "role",
          "type": "bytes32"
        },
        {
          "internalType": "uint256",
          "name": "index",
          "type": "uint256"
        }
      ],
      "name": "getRoleMember",
      "outputs": [
        {
          "internalType": "address",
          "name": "",
          "type": "address"
        }
      ],
      "stateMutability": "view",
      "type": "function",
      "constant": true
    },
    {
      "inputs": [
        {
          "internalType": "bytes32",
          "name": "role",
          "type": "bytes32"
        }
      ],
      "name": "getRoleMemberCount",
      "outputs": [
        {
          "internalType": "uint256",
          "name": "",
          "type": "uint256"
        }
      ],
      "stateMutability": "view",
      "type": "function",
      "constant": true
    },
    {
      "inputs": [
        {
          "internalType": "bytes32",
          "name": "role",
          "type": "bytes32"
        },
        {
          "internalType": "address",
          "name": "account",
          "type": "address"
        }
      ],
      "name": "grantRole",
      "outputs": [],
      "stateMutability": "nonpayable",
      "type": "function"
    },
    {
      "inputs": [
        {
          "internalType": "bytes32",
          "name": "role",
          "type": "bytes32"
        },
        {
          "internalType": "address",
          "name": "account",
          "type": "address"
        }
      ],
      "name": "hasRole",
      "outputs": [
        {
          "internalType": "bool",
          "name": "",
          "type": "bool"
        }
      ],
      "stateMutability": "view",
      "type": "function",
      "constant": true
    },
    {
      "inputs": [
        {
          "internalType": "address",
          "name": "owner",
          "type": "address"
        },
        {
          "internalType": "address",
          "name": "operator",
          "type": "address"
        }
      ],
      "name": "isApprovedForAll",
      "outputs": [
        {
          "internalType": "bool",
          "name": "",
          "type": "bool"
        }
      ],
      "stateMutability": "view",
      "type": "function",
      "constant": true
    },
    {
      "inputs": [],
      "name": "name",
      "outputs": [
        {
          "internalType": "string",
          "name": "",
          "type": "string"
        }
      ],
      "stateMutability": "view",
      "type": "function",
      "constant": true
    },
    {
      "inputs": [
        {
          "internalType": "uint256",
          "name": "tokenId",
          "type": "uint256"
        }
      ],
      "name": "ownerOf",
      "outputs": [
        {
          "internalType": "address",
          "name": "",
          "type": "address"
        }
      ],
      "stateMutability": "view",
      "type": "function",
      "constant": true
    },
    {
      "inputs": [
        {
          "internalType": "bytes32",
          "name": "role",
          "type": "bytes32"
        },
        {
          "internalType": "address",
          "name": "account",
          "type": "address"
        }
      ],
      "name": "renounceRole",
      "outputs": [],
      "stateMutability": "nonpayable",
      "type": "function"
    },
    {
      "inputs": [
        {
          "internalType": "bytes32",
          "name": "role",
          "type": "bytes32"
        },
        {
          "internalType": "address",
          "name": "account",
          "type": "address"
        }
      ],
      "name": "revokeRole",
      "outputs": [],
      "stateMutability": "nonpayable",
      "type": "function"
    },
    {
      "inputs": [
        {
          "internalType": "address",
          "name": "operator",
          "type": "address"
        },
        {
          "internalType": "bool",
          "name": "approved",
          "type": "bool"
        }
      ],
      "name": "setApprovalForAll",
      "outputs": [],
      "stateMutability": "nonpayable",
      "type": "function"
    },
    {
      "inputs": [
        {
          "internalType": "bytes4",
          "name": "interfaceId",
          "type": "bytes4"
        }
      ],
      "name": "supportsInterface",
      "outputs": [
        {
          "internalType": "bool",
          "name": "",
          "type": "bool"
        }
      ],
      "stateMutability": "view",
      "type": "function",
      "constant": true
    },
    {
      "inputs": [],
      "name": "symbol",
      "outputs": [
        {
          "internalType": "string",
          "name": "",
          "type": "string"
        }
      ],
      "stateMutability": "view",
      "type": "function",
      "constant": true
    },
    {
      "inputs": [
        {
          "internalType": "uint256",
          "name": "index",
          "type": "uint256"
        }
      ],
      "name": "tokenByIndex",
      "outputs": [
        {
          "internalType": "uint256",
          "name": "",
          "type": "uint256"
        }
      ],
      "stateMutability": "view",
      "type": "function",
      "constant": true
    },
    {
      "inputs": [
        {
          "internalType": "address",
          "name": "owner",
          "type": "address"
        },
        {
          "internalType": "uint256",
          "name": "index",
          "type": "uint256"
        }
      ],
      "name": "tokenOfOwnerByIndex",
      "outputs": [
        {
          "internalType": "uint256",
          "name": "",
          "type": "uint256"
        }
      ],
      "stateMutability": "view",
      "type": "function",
      "constant": true
    },
    {
      "inputs": [
        {
          "internalType": "uint256",
          "name": "tokenId",
          "type": "uint256"
        }
      ],
      "name": "tokenURI",
      "outputs": [
        {
          "internalType": "string",
          "name": "",
          "type": "string"
        }
      ],
      "stateMutability": "view",
      "type": "function",
      "constant": true
    },
    {
      "inputs": [],
      "name": "totalSupply",
      "outputs": [
        {
          "internalType": "uint256",
          "name": "",
          "type": "uint256"
        }
      ],
      "stateMutability": "view",
      "type": "function",
      "constant": true
    },
    {
      "inputs": [
        {
          "internalType": "address",
          "name": "spender",
          "type": "address"
        },
        {
          "internalType": "uint256",
          "name": "tokenId",
          "type": "uint256"
        }
      ],
      "name": "isApprovedOrOwner",
      "outputs": [
        {
          "internalType": "bool",
          "name": "",
          "type": "bool"
        }
      ],
      "stateMutability": "view",
      "type": "function",
      "constant": true
    },
    {
      "inputs": [
        {
          "internalType": "address",
          "name": "to",
          "type": "address"
        },
        {
          "internalType": "string",
          "name": "uri",
          "type": "string"
        }
      ],
      "name": "mint",
      "outputs": [],
      "stateMutability": "nonpayable",
      "type": "function"
    },
    {
      "inputs": [
        {
          "internalType": "address[]",
          "name": "to",
          "type": "address[]"
        },
        {
          "internalType": "string[]",
          "name": "uris",
          "type": "string[]"
        }
      ],
      "name": "mintMany",
      "outputs": [],
      "stateMutability": "nonpayable",
      "type": "function"
    },
    {
      "inputs": [
        {
          "internalType": "address",
          "name": "from",
          "type": "address"
        },
        {
          "internalType": "address",
          "name": "to",
          "type": "address"
        },
        {
          "internalType": "uint256",
          "name": "tokenId",
          "type": "uint256"
        }
      ],
      "name": "transferFrom",
      "outputs": [],
      "stateMutability": "nonpayable",
      "type": "function"
    },
    {
      "inputs": [
        {
          "internalType": "address",
          "name": "from",
          "type": "address"
        },
        {
          "internalType": "address",
          "name": "to",
          "type": "address"
        },
        {
          "internalType": "uint256",
          "name": "tokenId",
          "type": "uint256"
        }
      ],
      "name": "safeTransferFrom",
      "outputs": [],
      "stateMutability": "nonpayable",
      "type": "function"
    },
    {
      "inputs": [
        {
          "internalType": "address",
          "name": "from",
          "type": "address"
        },
        {
          "internalType": "address",
          "name": "to",
          "type": "address"
        },
        {
          "internalType": "uint256",
          "name": "tokenId",
          "type": "uint256"
        },
        {
          "internalType": "bytes",
          "name": "_data",
          "type": "bytes"
        }
      ],
      "name": "safeTransferFrom",
      "outputs": [],
      "stateMutability": "nonpayable",
      "type": "function"
    },
    {
      "inputs": [
        {
          "internalType": "uint256",
          "name": "tokenId",
          "type": "uint256"
        }
      ],
      "name": "burn",
      "outputs": [],
      "stateMutability": "nonpayable",
      "type": "function"
    },
    {
      "inputs": [
        {
          "internalType": "address",
          "name": "resolver",
          "type": "address"
        }
      ],
      "name": "setResolver",
      "outputs": [],
      "stateMutability": "nonpayable",
      "type": "function"
    },
    {
      "inputs": [
        {
          "internalType": "uint256",
          "name": "tokenId",
          "type": "uint256"
        }
      ],
      "name": "resolverOf",
      "outputs": [
        {
          "internalType": "address",
          "name": "",
          "type": "address"
        }
      ],
      "stateMutability": "view",
      "type": "function",
      "constant": true
    },
    {
      "inputs": [
        {
          "internalType": "address",
          "name": "to",
          "type": "address"
        },
        {
          "internalType": "uint256",
          "name": "tokenId",
          "type": "uint256"
        }
      ],
      "name": "resolveTo",
      "outputs": [],
      "stateMutability": "nonpayable",
      "type": "function"
    }
  ],
  "bytecode": "0x60806040523480156200001157600080fd5b506040516200316038038062003160833981016040819052620000349162000419565b8181620000516301ffc9a760e01b6001600160e01b036200012516565b815162000066906006906020850190620002d0565b5080516200007c906007906020840190620002d0565b50620000986380ac58cd60e01b6001600160e01b036200012516565b620000b3635b5e139f60e01b6001600160e01b036200012516565b620000ce63780e9d6360e01b6001600160e01b036200012516565b505060408051808201909152600c81526b697066733a2f2f697066732f60a01b602082015262000107906001600160e01b036200018016565b6200011d6000336001600160e01b036200019916565b5050620004b7565b6001600160e01b031980821614156200015b5760405162461bcd60e51b8152600401620001529062000480565b60405180910390fd5b6001600160e01b0319166000908152602081905260409020805460ff19166001179055565b805162000195906009906020840190620002d0565b5050565b6200019582826001600160e01b03620001ae16565b6000828152600a60209081526040909120620001d59183906200161262000232821b17901c565b156200019557620001ee6001600160e01b036200025b16565b6001600160a01b0316816001600160a01b0316837f2f8788117e7eff1d82e926ec794901d17c78024a50270940304540a733656f0d60405160405180910390a45050565b600062000252836001600160a01b0384166001600160e01b036200026016565b90505b92915050565b335b90565b60006200027783836001600160e01b03620002b816565b620002af5750815460018181018455600084815260208082209093018490558454848252828601909352604090209190915562000255565b50600062000255565b60009081526001919091016020526040902054151590565b828054600181600116156101000203166002900490600052602060002090601f016020900481019282601f106200031357805160ff191683800117855562000343565b8280016001018555821562000343579182015b828111156200034357825182559160200191906001019062000326565b506200035192915062000355565b5090565b6200025d91905b808211156200035157600081556001016200035c565b600082601f83011262000383578081fd5b81516001600160401b03808211156200039a578283fd5b6040516020601f8401601f1916820181018381118382101715620003bc578586fd5b80604052508194508382528681858801011115620003d957600080fd5b600092505b83831015620003fd5785830181015182840182015291820191620003de565b838311156200040f5760008185840101525b5050505092915050565b600080604083850312156200042c578182fd5b82516001600160401b038082111562000443578384fd5b620004518683870162000372565b9350602085015191508082111562000467578283fd5b50620004768582860162000372565b9150509250929050565b6020808252601c908201527f4552433136353a20696e76616c696420696e7465726661636520696400000000604082015260600190565b612c9980620004c76000396000f3fe608060405234801561001057600080fd5b50600436106102265760003560e01c80636352211e1161012a578063a49172aa116100bd578063ca15c8731161008c578063d539139311610071578063d539139314610475578063d547741f1461047d578063e985e9c51461049057610226565b8063ca15c8731461044f578063d0def5211461046257610226565b8063a49172aa14610403578063b3f9e4cb14610416578063b88d4fde14610429578063c87b56dd1461043c57610226565b806391d14854116100f957806391d14854146103cd57806395d89b41146103e0578063a217fddf146103e8578063a22cb465146103f057610226565b80636352211e1461038c5780636c0360eb1461039f57806370a08231146103a75780639010d07c146103ba57610226565b80632ab4edd8116101bd57806342842e0e1161018c578063430c208111610171578063430c2081146103535780634e543b26146103665780634f6ccce71461037957610226565b806342842e0e1461032d57806342966c681461034057610226565b80632ab4edd8146102ec5780632f2ff15d146102f45780632f745c591461030757806336568abe1461031a57610226565b806318160ddd116101f957806318160ddd1461029e5780632392c189146102b357806323b872dd146102c6578063248a9ca3146102d957610226565b806301ffc9a71461022b57806306fdde0314610254578063081812fc14610269578063095ea7b314610289575b600080fd5b61023e6102393660046121c6565b6104a3565b60405161024b9190612359565b60405180910390f35b61025c6104de565b60405161024b919061236d565b61027c610277366004612169565b610575565b60405161024b91906122f0565b61029c610297366004612087565b6105c1565b005b6102a6610659565b60405161024b9190612364565b61029c6102c1366004612087565b61066a565b61029c6102d4366004611f56565b610688565b6102a66102e7366004612169565b61069c565b61027c6106b1565b61029c610302366004612181565b6106c0565b6102a6610315366004612087565b610708565b61029c610328366004612181565b610739565b61029c61033b366004611f56565b61077b565b61029c61034e366004612169565b61078f565b61023e610361366004612087565b6107f5565b61029c610374366004611f07565b610801565b6102a6610387366004612169565b61088b565b61027c61039a366004612169565b6108a7565b61025c6108d5565b6102a66103b5366004611f07565b610936565b61027c6103c83660046121a5565b61097f565b61023e6103db366004612181565b61099d565b61025c6109bb565b6102a6610a1c565b61029c6103fe366004611ffe565b610a21565b61029c6104113660046120b1565b610aef565b61027c610424366004612169565b610b7d565b61029c610437366004611f96565b610b98565b61025c61044a366004612169565b610bd7565b6102a661045d366004612169565b610d21565b61029c610470366004612039565b610d38565b6102a6610e26565b61029c61048b366004612181565b610e3d565b61023e61049e366004611f22565b610e77565b7fffffffff00000000000000000000000000000000000000000000000000000000811660009081526020819052604090205460ff165b919050565b60068054604080516020601f600260001961010060018816150201909516949094049384018190048102820181019092528281526060939092909183018282801561056a5780601f1061053f5761010080835404028352916020019161056a565b820191906000526020600020905b81548152906001019060200180831161054d57829003601f168201915b505050505090505b90565b600061058082610ea5565b6105a55760405162461bcd60e51b815260040161059c90612833565b60405180910390fd5b506000908152600460205260409020546001600160a01b031690565b60006105cc826108a7565b9050806001600160a01b0316836001600160a01b031614156106005760405162461bcd60e51b815260040161059c906129a7565b806001600160a01b0316610612610eb8565b6001600160a01b0316148061062e575061062e8161049e610eb8565b61064a5760405162461bcd60e51b815260040161059c906126e7565b6106548383610ebc565b505050565b60006106656002610f37565b905090565b806106753382610f42565b61067e57600080fd5b6106548383610fc7565b6106918161104a565b6106548383836110cb565b6000908152600a602052604090206002015490565b600b546001600160a01b031681565b6000828152600a60205260409020600201546106de906103db610eb8565b6106fa5760405162461bcd60e51b815260040161059c90612414565b6107048282611103565b5050565b6001600160a01b0382166000908152600160205260408120610730908363ffffffff61117216565b90505b92915050565b610741610eb8565b6001600160a01b0316816001600160a01b0316146107715760405162461bcd60e51b815260040161059c90612af5565b610704828261117e565b6107848161104a565b6106548383836111ed565b8061079a3382610f42565b6107a357600080fd5b6107ac82611208565b6000828152600d60205260409020546001600160a01b03161561070457506000908152600d60205260409020805473ffffffffffffffffffffffffffffffffffffffff19169055565b60006107308383610f42565b61080c60003361099d565b6108285760405162461bcd60e51b815260040161059c906125f6565b600b805473ffffffffffffffffffffffffffffffffffffffff19166001600160a01b0383161790556040517fbf5b1f74a995a02b689b2cb68a97ed3151096198416c6bfca2eaf3d7e37a1693906108809083906122f0565b60405180910390a150565b60008061089f60028463ffffffff61123b16565b509392505050565b600061073382604051806060016040528060298152602001612c3b602991396002919063ffffffff61125716565b60098054604080516020601f600260001961010060018816150201909516949094049384018190048102820181019092528281526060939092909183018282801561056a5780601f1061053f5761010080835404028352916020019161056a565b60006001600160a01b03821661095e5760405162461bcd60e51b815260040161059c90612744565b6001600160a01b038216600090815260016020526040902061073390610f37565b6000828152600a60205260408120610730908363ffffffff61117216565b6000828152600a60205260408120610730908363ffffffff61126e16565b60078054604080516020601f600260001961010060018816150201909516949094049384018190048102820181019092528281526060939092909183018282801561056a5780601f1061053f5761010080835404028352916020019161056a565b600081565b610a29610eb8565b6001600160a01b0316826001600160a01b03161415610a5a5760405162461bcd60e51b815260040161059c90612562565b8060056000610a67610eb8565b6001600160a01b03908116825260208083019390935260409182016000908120918716808252919093529120805460ff191692151592909217909155610aab610eb8565b6001600160a01b03167f17307eab39ab6107e8899845ad3d59bd9653f200f220920489ca2b5937696c3183604051610ae39190612359565b60405180910390a35050565b610b0c604051610afe906122c7565b60405180910390203361099d565b80610b1d5750610b1d60003361099d565b610b395760405162461bcd60e51b815260040161059c906123dd565b60005b815181101561065457610b75838281518110610b5457fe5b6020026020010151838381518110610b6857fe5b6020026020010151610d38565b600101610b3c565b6000908152600d60205260409020546001600160a01b031690565b610ba9610ba3610eb8565b83610f42565b610bc55760405162461bcd60e51b815260040161059c90612a04565b610bd184848484611283565b50505050565b6060610be282610ea5565b610bfe5760405162461bcd60e51b815260040161059c9061294a565b60008281526008602090815260409182902080548351601f6002600019610100600186161502019093169290920491820184900484028101840190945280845260609392830182828015610c935780601f10610c6857610100808354040283529160200191610c93565b820191906000526020600020905b815481529060010190602001808311610c7657829003601f168201915b505060095493945050505060026000196101006001841615020190911604610cbc5790506104d9565b805115610cee57600981604051602001610cd7929190612246565b6040516020818303038152906040529150506104d9565b6009610cf9846112b6565b604051602001610d0a929190612246565b604051602081830303815290604052915050919050565b6000818152600a6020526040812061073390610f37565b610d47604051610afe906122c7565b80610d585750610d5860003361099d565b610d745760405162461bcd60e51b815260040161059c906123dd565b600b546001600160a01b0316610d9c5760405162461bcd60e51b815260040161059c9061268a565b610da6600c6113c5565b6000610db2600c6113ce565b9050610dbe83826113d2565b610dc881836114a2565b600b54610dde906001600160a01b031682610fc7565b826001600160a01b03167f9d228d69b5fdb8d273a2336f8fb8612d039631024ea9bf09c424a9503aa078f03383604051610e19929190612340565b60405180910390a2505050565b604051610e32906122c7565b604051809103902081565b6000828152600a6020526040902060020154610e5b906103db610eb8565b6107715760405162461bcd60e51b815260040161059c9061262d565b6001600160a01b03918216600090815260056020908152604080832093909416825291909152205460ff1690565b600061073360028363ffffffff6114e616565b3390565b6000818152600460205260409020805473ffffffffffffffffffffffffffffffffffffffff19166001600160a01b0384169081179091558190610efe826108a7565b6001600160a01b03167f8c5be1e5ebec7d5bd14f71427d1e84f3dd0314c0f7b2291e5b200ac8c7c3b92560405160405180910390a45050565b6000610733826113ce565b6000610f4d82610ea5565b610f695760405162461bcd60e51b815260040161059c90612599565b6000610f74836108a7565b9050806001600160a01b0316846001600160a01b03161480610faf5750836001600160a01b0316610fa484610575565b6001600160a01b0316145b80610fbf5750610fbf8185610e77565b949350505050565b610fd081610ea5565b610fd957600080fd5b6040516001600160a01b0383169082907fb1b34e6d89e1c584527d447f4b29ffad55635a37edeeb564939a6483401b31a590600090a36000908152600d60205260409020805473ffffffffffffffffffffffffffffffffffffffff19166001600160a01b0392909216919091179055565b600b546040517f310bd74b0000000000000000000000000000000000000000000000000000000081526001600160a01b0390911690819063310bd74b90611095908590600401612364565b600060405180830381600087803b1580156110af57600080fd5b505af11580156110c3573d6000803e3d6000fd5b505050505050565b6110dc6110d6610eb8565b82610f42565b6110f85760405162461bcd60e51b815260040161059c90612a04565b6106548383836114f2565b6000828152600a60205260409020611121908263ffffffff61161216565b156107045761112e610eb8565b6001600160a01b0316816001600160a01b0316837f2f8788117e7eff1d82e926ec794901d17c78024a50270940304540a733656f0d60405160405180910390a45050565b60006107308383611627565b6000828152600a6020526040902061119c908263ffffffff61166c16565b15610704576111a9610eb8565b6001600160a01b0316816001600160a01b0316837ff6391f5c32d9c69d2a47ea670b442974b53935d1edc7fd64eb21e047a839171b60405160405180910390a45050565b61065483838360405180602001604052806000815250610b98565b6112136110d6610eb8565b61122f5760405162461bcd60e51b815260040161059c90612a98565b61123881611681565b50565b600080808061124a868661175a565b9097909650945050505050565b60006112648484846117b6565b90505b9392505050565b6000610730836001600160a01b038416611815565b61128e8484846114f2565b61129a8484848461182d565b610bd15760405162461bcd60e51b815260040161059c90612471565b6060816112f7575060408051808201909152600181527f300000000000000000000000000000000000000000000000000000000000000060208201526104d9565b8160005b811561130f57600101600a820491506112fb565b60608167ffffffffffffffff8111801561132857600080fd5b506040519080825280601f01601f191660200182016040528015611353576020820181803683370190505b50859350905060001982015b83156113bc57600a840660300160f81b8282806001900393508151811061138257fe5b60200101907effffffffffffffffffffffffffffffffffffffffffffffffffffffffffffff1916908160001a905350600a8404935061135f565b50949350505050565b80546001019055565b5490565b6001600160a01b0382166113f85760405162461bcd60e51b815260040161059c906127fe565b61140181610ea5565b1561141e5760405162461bcd60e51b815260040161059c906124ce565b61142a60008383610654565b6001600160a01b0382166000908152600160205260409020611452908263ffffffff61198616565b506114656002828463ffffffff61199216565b5060405181906001600160a01b038416906000907fddf252ad1be2c89b69c2b068fc378daa952ba7f163c4a11628f55a4df523b3ef908290a45050565b6114ab82610ea5565b6114c75760405162461bcd60e51b815260040161059c90612890565b6000828152600860209081526040909120825161065492840190611d47565b60006107308383611815565b826001600160a01b0316611505826108a7565b6001600160a01b03161461152b5760405162461bcd60e51b815260040161059c906128ed565b6001600160a01b0382166115515760405162461bcd60e51b815260040161059c90612505565b61155c838383610654565b611567600082610ebc565b6001600160a01b038316600090815260016020526040902061158f908263ffffffff6119a816565b506001600160a01b03821660009081526001602052604090206115b8908263ffffffff61198616565b506115cb6002828463ffffffff61199216565b5080826001600160a01b0316846001600160a01b03167fddf252ad1be2c89b69c2b068fc378daa952ba7f163c4a11628f55a4df523b3ef60405160405180910390a4505050565b6000610730836001600160a01b0384166119b4565b8154600090821061164a5760405162461bcd60e51b815260040161059c90612380565b82600001828154811061165957fe5b9060005260206000200154905092915050565b6000610730836001600160a01b0384166119fe565b600061168c826108a7565b905061169a81600084610654565b6116a5600083610ebc565b60008281526008602052604090205460026000196101006001841615020190911604156116e35760008281526008602052604081206116e391611dc5565b6001600160a01b038116600090815260016020526040902061170b908363ffffffff6119a816565b5061171d60028363ffffffff611ac416565b5060405182906000906001600160a01b038416907fddf252ad1be2c89b69c2b068fc378daa952ba7f163c4a11628f55a4df523b3ef908390a45050565b81546000908190831061177f5760405162461bcd60e51b815260040161059c906127a1565b600084600001848154811061179057fe5b906000526020600020906002020190508060000154816001015492509250509250929050565b600082815260018401602052604081205482816117e65760405162461bcd60e51b815260040161059c919061236d565b508460000160018203815481106117f957fe5b9060005260206000209060020201600101549150509392505050565b60009081526001919091016020526040902054151590565b6000611841846001600160a01b0316611ad0565b61184d57506001610fbf565b606061191e7f150b7a020000000000000000000000000000000000000000000000000000000061187b610eb8565b8887876040516024016118919493929190612304565b604051602081830303815290604052907bffffffffffffffffffffffffffffffffffffffffffffffffffffffff19166020820180517bffffffffffffffffffffffffffffffffffffffffffffffffffffffff8381831617835250505050604051806060016040528060328152602001612c09603291396001600160a01b038816919063ffffffff611b0916565b905060008180602001905181019061193691906121e2565b7fffffffff00000000000000000000000000000000000000000000000000000000167f150b7a02000000000000000000000000000000000000000000000000000000001492505050949350505050565b600061073083836119b4565b600061126484846001600160a01b038516611b18565b600061073083836119fe565b60006119c08383611815565b6119f657508154600181810184556000848152602080822090930184905584548482528286019093526040902091909155610733565b506000610733565b60008181526001830160205260408120548015611aba5783546000198083019190810190600090879083908110611a3157fe5b9060005260206000200154905080876000018481548110611a4e57fe5b600091825260208083209091019290925582815260018981019092526040902090840190558654879080611a7e57fe5b60019003818190600052602060002001600090559055866001016000878152602001908152602001600020600090556001945050505050610733565b6000915050610733565b60006107308383611baf565b6000813f7fc5d2460186f7233c927e7db2dcc703c0e500b653ca82273b7bfad8045d85a470818114801590610fbf575050151592915050565b60606112648484600085611c83565b600082815260018401602052604081205480611b7d575050604080518082018252838152602080820184815286546001818101895560008981528481209551600290930290950191825591519082015586548684528188019092529290912055611267565b82856000016001830381548110611b9057fe5b9060005260206000209060020201600101819055506000915050611267565b60008181526001830160205260408120548015611aba5783546000198083019190810190600090879083908110611be257fe5b9060005260206000209060020201905080876000018481548110611c0257fe5b600091825260208083208454600290930201918255600193840154918401919091558354825289830190526040902090840190558654879080611c4157fe5b60008281526020808220600260001990940193840201828155600190810183905592909355888152898201909252604082209190915594506107339350505050565b6060611c8e85611ad0565b611caa5760405162461bcd60e51b815260040161059c90612a61565b60006060866001600160a01b03168587604051611cc7919061222a565b60006040518083038185875af1925050503d8060008114611d04576040519150601f19603f3d011682016040523d82523d6000602084013e611d09565b606091505b50915091508115611d1d579150610fbf9050565b805115611d2d5780518082602001fd5b8360405162461bcd60e51b815260040161059c919061236d565b828054600181600116156101000203166002900490600052602060002090601f016020900481019282601f10611d8857805160ff1916838001178555611db5565b82800160010185558215611db5579182015b82811115611db5578251825591602001919060010190611d9a565b50611dc1929150611e05565b5090565b50805460018160011615610100020316600290046000825580601f10611deb5750611238565b601f01602090049060005260206000209081019061123891905b61057291905b80821115611dc15760008155600101611e0b565b80356001600160a01b038116811461073357600080fd5b600082601f830112611e46578081fd5b8135611e59611e5482612b79565b612b52565b818152915060208083019084810160005b84811015611e9357611e81888484358a0101611e9e565b84529282019290820190600101611e6a565b505050505092915050565b600082601f830112611eae578081fd5b813567ffffffffffffffff811115611ec4578182fd5b611ed76020601f19601f84011601612b52565b9150808252836020828501011115611eee57600080fd5b8060208401602084013760009082016020015292915050565b600060208284031215611f18578081fd5b6107308383611e1f565b60008060408385031215611f34578081fd5b611f3e8484611e1f565b9150611f4d8460208501611e1f565b90509250929050565b600080600060608486031215611f6a578081fd5b8335611f7581612bc5565b92506020840135611f8581612bc5565b929592945050506040919091013590565b60008060008060808587031215611fab578081fd5b611fb58686611e1f565b9350611fc48660208701611e1f565b925060408501359150606085013567ffffffffffffffff811115611fe6578182fd5b611ff287828801611e9e565b91505092959194509250565b60008060408385031215612010578182fd5b61201a8484611e1f565b91506020830135801515811461202e578182fd5b809150509250929050565b6000806040838503121561204b578182fd5b823561205681612bc5565b9150602083013567ffffffffffffffff811115612071578182fd5b61207d85828601611e9e565b9150509250929050565b60008060408385031215612099578182fd5b6120a38484611e1f565b946020939093013593505050565b600080604083850312156120c3578182fd5b823567ffffffffffffffff808211156120da578384fd5b81850186601f8201126120eb578485fd5b803592506120fb611e5484612b79565b80848252602080830192508084018a82838902870101111561211b578889fd5b8894505b86851015612145576121318b82611e1f565b84526001949094019392810192810161211f565b50909650870135935050508082111561215c578283fd5b5061207d85828601611e36565b60006020828403121561217a578081fd5b5035919050565b60008060408385031215612193578182fd5b82359150602083013561202e81612bc5565b600080604083850312156121b7578182fd5b50508035926020909101359150565b6000602082840312156121d7578081fd5b813561126781612bda565b6000602082840312156121f3578081fd5b815161126781612bda565b60008151808452612216816020860160208601612b99565b601f01601f19169290920160200192915050565b6000825161223c818460208701612b99565b9190910192915050565b6000808454600180821660008114612265576001811461227c576122ab565b60ff1983168652607f6002840416860193506122ab565b600283048886526020808720875b838110156122a35781548a82015290850190820161228a565b505050860193505b50505083516122be818360208801612b99565b01949350505050565b7f6d696e7465720000000000000000000000000000000000000000000000000000815260060190565b6001600160a01b0391909116815260200190565b60006001600160a01b0380871683528086166020840152508360408301526080606083015261233660808301846121fe565b9695505050505050565b6001600160a01b03929092168252602082015260400190565b901515815260200190565b90815260200190565b60006020825261073060208301846121fe565b60208082526022908201527f456e756d657261626c655365743a20696e646578206f7574206f6620626f756e60408201527f6473000000000000000000000000000000000000000000000000000000000000606082015260800190565b60208082526014908201527f53656e646572206973206e6f74206d696e746572000000000000000000000000604082015260600190565b6020808252602f908201527f416363657373436f6e74726f6c3a2073656e646572206d75737420626520616e60408201527f2061646d696e20746f206772616e740000000000000000000000000000000000606082015260800190565b60208082526032908201527f4552433732313a207472616e7366657220746f206e6f6e20455243373231526560408201527f63656976657220696d706c656d656e7465720000000000000000000000000000606082015260800190565b6020808252601c908201527f4552433732313a20746f6b656e20616c7265616479206d696e74656400000000604082015260600190565b60208082526024908201527f4552433732313a207472616e7366657220746f20746865207a65726f2061646460408201527f7265737300000000000000000000000000000000000000000000000000000000606082015260800190565b60208082526019908201527f4552433732313a20617070726f766520746f2063616c6c657200000000000000604082015260600190565b6020808252602c908201527f4552433732313a206f70657261746f7220717565727920666f72206e6f6e657860408201527f697374656e7420746f6b656e0000000000000000000000000000000000000000606082015260800190565b6020808252601a908201527f53656e646572206d7573742062652073757065722061646d696e000000000000604082015260600190565b60208082526030908201527f416363657373436f6e74726f6c3a2073656e646572206d75737420626520616e60408201527f2061646d696e20746f207265766f6b6500000000000000000000000000000000606082015260800190565b60208082526037908201527f4e65656420746f207365742064656661756c74207265736f6c7665722061646460408201527f7265737320746f2062652061626c6520746f206d696e74000000000000000000606082015260800190565b60208082526038908201527f4552433732313a20617070726f76652063616c6c6572206973206e6f74206f7760408201527f6e6572206e6f7220617070726f76656420666f7220616c6c0000000000000000606082015260800190565b6020808252602a908201527f4552433732313a2062616c616e636520717565727920666f7220746865207a6560408201527f726f206164647265737300000000000000000000000000000000000000000000606082015260800190565b60208082526022908201527f456e756d657261626c654d61703a20696e646578206f7574206f6620626f756e60408201527f6473000000000000000000000000000000000000000000000000000000000000606082015260800190565b6020808252818101527f4552433732313a206d696e7420746f20746865207a65726f2061646472657373604082015260600190565b6020808252602c908201527f4552433732313a20617070726f76656420717565727920666f72206e6f6e657860408201527f697374656e7420746f6b656e0000000000000000000000000000000000000000606082015260800190565b6020808252602c908201527f4552433732314d657461646174613a2055524920736574206f66206e6f6e657860408201527f697374656e7420746f6b656e0000000000000000000000000000000000000000606082015260800190565b60208082526029908201527f4552433732313a207472616e73666572206f6620746f6b656e2074686174206960408201527f73206e6f74206f776e0000000000000000000000000000000000000000000000606082015260800190565b6020808252602f908201527f4552433732314d657461646174613a2055524920717565727920666f72206e6f60408201527f6e6578697374656e7420746f6b656e0000000000000000000000000000000000606082015260800190565b60208082526021908201527f4552433732313a20617070726f76616c20746f2063757272656e74206f776e6560408201527f7200000000000000000000000000000000000000000000000000000000000000606082015260800190565b60208082526031908201527f4552433732313a207472616e736665722063616c6c6572206973206e6f74206f60408201527f776e6572206e6f7220617070726f766564000000000000000000000000000000606082015260800190565b6020808252601d908201527f416464726573733a2063616c6c20746f206e6f6e2d636f6e7472616374000000604082015260600190565b60208082526030908201527f4552433732314275726e61626c653a2063616c6c6572206973206e6f74206f7760408201527f6e6572206e6f7220617070726f76656400000000000000000000000000000000606082015260800190565b6020808252602f908201527f416363657373436f6e74726f6c3a2063616e206f6e6c792072656e6f756e636560408201527f20726f6c657320666f722073656c660000000000000000000000000000000000606082015260800190565b60405181810167ffffffffffffffff81118282101715612b7157600080fd5b604052919050565b600067ffffffffffffffff821115612b8f578081fd5b5060209081020190565b60005b83811015612bb4578181015183820152602001612b9c565b83811115610bd15750506000910152565b6001600160a01b038116811461123857600080fd5b7fffffffff000000000000000000000000000000000000000000000000000000008116811461123857600080fdfe4552433732313a207472616e7366657220746f206e6f6e20455243373231526563656976657220696d706c656d656e7465724552433732313a206f776e657220717565727920666f72206e6f6e6578697374656e7420746f6b656ea2646970667358221220f2db96df0f9ab6aa79eda58cefcb7437245be5580ece6d3556381d5ef3d17afa64736f6c63430006060033",
  "immutableReferences": {},
  "source": "pragma solidity ^0.6.6;\npragma experimental ABIEncoderV2;\n\nimport \"@openzeppelin/contracts/token/ERC721/ERC721.sol\";\nimport \"@openzeppelin/contracts/token/ERC721/ERC721Burnable.sol\";\nimport \"@openzeppelin/contracts/utils/Counters.sol\";\nimport \"./Controller.sol\";\nimport \"./Resolver.sol\";\n\n/**\n * @title DSSRegistry\n * @dev An ERC721 Token see https://eips.ethereum.org/EIPS/eip-721.\n */\ncontract ItemsERC721 is ERC721,ERC721Burnable,Controller {\n\n    address public RESOLVER_ADDRESS;\n\n    using Counters for Counters.Counter;\n\n    Counters.Counter private _tokenIds;\n\n\n    mapping (uint256 => address) internal _tokenResolvers;\n\n\n    event Resolve(uint256 indexed tokenId, address indexed to);\n    event ResolverDefined(address resolver);\n    event Minted(address from,address indexed to,uint256 tokenId);\n\n    modifier onlyApprovedOrOwner(uint256 tokenId) {\n        require(_isApprovedOrOwner(msg.sender, tokenId));\n        _;\n    }\n\n    constructor(string memory name, string memory symbol) ERC721(name, symbol) public {\n\n      _setBaseURI(\"ipfs://ipfs/\");\n      _setupRole(DEFAULT_ADMIN_ROLE,msg.sender);\n\n    }\n\n\n    /// Ownership\n\n    function isApprovedOrOwner(address spender, uint256 tokenId) external view returns (bool) {\n        return _isApprovedOrOwner(spender, tokenId);\n    }\n\n\n\n    /// Minting\n\n    function mint(address to,string memory uri) public onlyMinter {\n      require(uint256(RESOLVER_ADDRESS) != 0,\"Need to set default resolver address to be able to mint\");\n      _tokenIds.increment();\n      uint256 newItemId = _tokenIds.current();\n      _mint(to, newItemId);\n      _setTokenURI(newItemId, uri);\n      _resolveTo(RESOLVER_ADDRESS,newItemId);\n      emit Minted(msg.sender,to,newItemId);\n    }\n\n    function mintMany(address[] memory to,string[] memory uris) public onlyMinter{\n      for (uint256 i = 0; i < uris.length; i++) {\n        mint(to[i],uris[i]);\n      }\n    }\n\n    // Transfer\n\n    function transferFrom(address from, address to, uint256 tokenId) public virtual override(ERC721)  {\n      _resetResolver(tokenId);\n      super.transferFrom(from,to,tokenId);\n    }\n\n    function safeTransferFrom(address from, address to, uint256 tokenId) public virtual override(ERC721) {\n      _resetResolver(tokenId);\n      super.safeTransferFrom(from,to,tokenId);\n    }\n\n    // Burning\n\n    function burn(uint256 tokenId) public virtual override onlyApprovedOrOwner(tokenId) {\n        super.burn(tokenId);\n        // Clear resolver (if any)\n        if (_tokenResolvers[tokenId] != address(0x0)) {\n          delete _tokenResolvers[tokenId];\n        }\n    }\n\n    /// Resolution\n\n    function setResolver(address resolver) public  {\n      require(hasRole(DEFAULT_ADMIN_ROLE,msg.sender),\"Sender must be super admin\");\n      RESOLVER_ADDRESS = resolver;\n      emit ResolverDefined(resolver);\n    }\n\n    function resolverOf(uint256 tokenId) external view returns (address) {\n      return(_tokenResolvers[tokenId]);\n    }\n\n    function resolveTo(address to, uint256 tokenId) external onlyApprovedOrOwner(tokenId) {\n        _resolveTo(to, tokenId);\n    }\n\n    function _resolveTo(address to, uint256 tokenId) private {\n        require(_exists(tokenId));\n        emit Resolve(tokenId, to);\n        _tokenResolvers[tokenId] = to;\n    }\n\n    function _resetResolver(uint256 tokenId) private {\n      Resolver resolver = Resolver(RESOLVER_ADDRESS);\n      resolver.reset(tokenId);\n    }\n\n\n}\n",
  "sourcePath": "/home/henrique/projects/IzziDapps/dogs/dogs_sc/contracts/ItemsERC721.sol",
  "compiler": {
    "name": "solc",
    "version": "0.6.6+commit.6c089d02.Emscripten.clang"
  },
  "schemaVersion": "3.2.0",
  "updatedAt": "2020-10-12T14:39:32.125Z",
  "networkType": "ethereum",
  "devdoc": {
    "details": "An ERC721 Token see https://eips.ethereum.org/EIPS/eip-721.",
    "methods": {
      "approve(address,uint256)": {
        "details": "See {IERC721-approve}."
      },
      "balanceOf(address)": {
        "details": "See {IERC721-balanceOf}."
      },
      "baseURI()": {
        "details": "Returns the base URI set via {_setBaseURI}. This will be automatically added as a prefix in {tokenURI} to each token's URI, or to the token ID if no specific URI is set for that token ID."
      },
      "getApproved(uint256)": {
        "details": "See {IERC721-getApproved}."
      },
      "getRoleAdmin(bytes32)": {
        "details": "Returns the admin role that controls `role`. See {grantRole} and {revokeRole}.     * To change a role's admin, use {_setRoleAdmin}."
      },
      "getRoleMember(bytes32,uint256)": {
        "details": "Returns one of the accounts that have `role`. `index` must be a value between 0 and {getRoleMemberCount}, non-inclusive.     * Role bearers are not sorted in any particular way, and their ordering may change at any point.     * WARNING: When using {getRoleMember} and {getRoleMemberCount}, make sure you perform all queries on the same block. See the following https://forum.openzeppelin.com/t/iterating-over-elements-on-enumerableset-in-openzeppelin-contracts/2296[forum post] for more information."
      },
      "getRoleMemberCount(bytes32)": {
        "details": "Returns the number of accounts that have `role`. Can be used together with {getRoleMember} to enumerate all bearers of a role."
      },
      "grantRole(bytes32,address)": {
        "details": "Grants `role` to `account`.     * If `account` had not been already granted `role`, emits a {RoleGranted} event.     * Requirements:     * - the caller must have ``role``'s admin role."
      },
      "hasRole(bytes32,address)": {
        "details": "Returns `true` if `account` has been granted `role`."
      },
      "isApprovedForAll(address,address)": {
        "details": "See {IERC721-isApprovedForAll}."
      },
      "name()": {
        "details": "See {IERC721Metadata-name}."
      },
      "ownerOf(uint256)": {
        "details": "See {IERC721-ownerOf}."
      },
      "renounceRole(bytes32,address)": {
        "details": "Revokes `role` from the calling account.     * Roles are often managed via {grantRole} and {revokeRole}: this function's purpose is to provide a mechanism for accounts to lose their privileges if they are compromised (such as when a trusted device is misplaced).     * If the calling account had been granted `role`, emits a {RoleRevoked} event.     * Requirements:     * - the caller must be `account`."
      },
      "revokeRole(bytes32,address)": {
        "details": "Revokes `role` from `account`.     * If `account` had been granted `role`, emits a {RoleRevoked} event.     * Requirements:     * - the caller must have ``role``'s admin role."
      },
      "safeTransferFrom(address,address,uint256,bytes)": {
        "details": "See {IERC721-safeTransferFrom}."
      },
      "setApprovalForAll(address,bool)": {
        "details": "See {IERC721-setApprovalForAll}."
      },
      "supportsInterface(bytes4)": {
        "details": "See {IERC165-supportsInterface}.     * Time complexity O(1), guaranteed to always use less than 30 000 gas."
      },
      "symbol()": {
        "details": "See {IERC721Metadata-symbol}."
      },
      "tokenByIndex(uint256)": {
        "details": "See {IERC721Enumerable-tokenByIndex}."
      },
      "tokenOfOwnerByIndex(address,uint256)": {
        "details": "See {IERC721Enumerable-tokenOfOwnerByIndex}."
      },
      "tokenURI(uint256)": {
        "details": "See {IERC721Metadata-tokenURI}."
      },
      "totalSupply()": {
        "details": "See {IERC721Enumerable-totalSupply}."
      }
    },
    "title": "DSSRegistry"
  },
  "userdoc": {
    "methods": {
      "isApprovedOrOwner(address,uint256)": {
        "notice": "Ownership"
      },
      "mint(address,string)": {
        "notice": "Minting"
      },
      "setResolver(address)": {
        "notice": "Resolution"
      }
    }
  }
}