{
  "contractName": "Minter",
  "abi": [
    {
      "inputs": [
        {
          "internalType": "address",
          "name": "erc721_addr",
          "type": "address"
        },
        {
          "internalType": "uint256",
          "name": "_price",
          "type": "uint256"
        }
      ],
      "stateMutability": "nonpayable",
      "type": "constructor"
    },
    {
      "anonymous": false,
      "inputs": [
        {
          "indexed": false,
          "internalType": "address",
          "name": "payee",
          "type": "address"
        },
        {
          "indexed": false,
          "internalType": "uint256",
          "name": "amount",
          "type": "uint256"
        }
      ],
      "name": "Deposited",
      "type": "event"
    },
    {
      "anonymous": false,
      "inputs": [
        {
          "indexed": true,
          "internalType": "address",
          "name": "previousOwner",
          "type": "address"
        },
        {
          "indexed": true,
          "internalType": "address",
          "name": "newOwner",
          "type": "address"
        }
      ],
      "name": "OwnershipTransferred",
      "type": "event"
    },
    {
      "anonymous": false,
      "inputs": [
        {
          "indexed": false,
          "internalType": "address",
          "name": "payee",
          "type": "address"
        },
        {
          "indexed": false,
          "internalType": "uint256",
          "name": "amount",
          "type": "uint256"
        }
      ],
      "name": "Withdrawn",
      "type": "event"
    },
    {
      "inputs": [],
      "name": "erc721",
      "outputs": [
        {
          "internalType": "contract ItemsERC721",
          "name": "",
          "type": "address"
        }
      ],
      "stateMutability": "view",
      "type": "function",
      "constant": true
    },
    {
      "inputs": [],
      "name": "owner",
      "outputs": [
        {
          "internalType": "address",
          "name": "",
          "type": "address"
        }
      ],
      "stateMutability": "view",
      "type": "function",
      "constant": true
    },
    {
      "inputs": [],
      "name": "price",
      "outputs": [
        {
          "internalType": "uint256",
          "name": "",
          "type": "uint256"
        }
      ],
      "stateMutability": "view",
      "type": "function",
      "constant": true
    },
    {
      "inputs": [],
      "name": "renounceOwnership",
      "outputs": [],
      "stateMutability": "nonpayable",
      "type": "function"
    },
    {
      "inputs": [
        {
          "internalType": "address",
          "name": "newOwner",
          "type": "address"
        }
      ],
      "name": "transferOwnership",
      "outputs": [],
      "stateMutability": "nonpayable",
      "type": "function"
    },
    {
      "inputs": [
        {
          "internalType": "uint256",
          "name": "_price",
          "type": "uint256"
        }
      ],
      "name": "setPrice",
      "outputs": [],
      "stateMutability": "nonpayable",
      "type": "function"
    },
    {
      "inputs": [
        {
          "internalType": "address[]",
          "name": "to",
          "type": "address[]"
        },
        {
          "internalType": "string[]",
          "name": "uris",
          "type": "string[]"
        }
      ],
      "name": "doMintMany",
      "outputs": [],
      "stateMutability": "payable",
      "type": "function",
      "payable": true
    },
    {
      "inputs": [],
      "name": "withdrawFunds",
      "outputs": [],
      "stateMutability": "nonpayable",
      "type": "function"
    }
  ],
  "bytecode": "0x608060405234801561001057600080fd5b50604051610b48380380610b4883398101604081905261002f91610107565b60006100426001600160e01b036100b716565b600080546001600160a01b0319166001600160a01b0383169081178255604051929350917f8be0079c531659141344cd1fd0a4f28419497f9722a3daafe3b4186f6b6457e0908290a350600180546001600160a01b0319166001600160a01b0384161790556100b0816100bb565b5050610174565b3390565b6100cc6001600160e01b036100b716565b6000546001600160a01b039081169116146101025760405162461bcd60e51b81526004016100f99061013f565b60405180910390fd5b600255565b60008060408385031215610119578182fd5b82516001600160a01b038116811461012f578283fd5b6020939093015192949293505050565b6020808252818101527f4f776e61626c653a2063616c6c6572206973206e6f7420746865206f776e6572604082015260600190565b6109c5806101836000396000f3fe60806040526004361061007b5760003560e01c8063a035b1fe1161004e578063a035b1fe146100f7578063bca6ce6414610119578063d6b525561461012e578063f2fde38b146101415761007b565b806324600fc314610080578063715018a6146100975780638da5cb5b146100ac57806391b7f5ed146100d7575b600080fd5b34801561008c57600080fd5b50610095610161565b005b3480156100a357600080fd5b5061009561022e565b3480156100b857600080fd5b506100c16102c5565b6040516100ce919061074a565b60405180910390f35b3480156100e357600080fd5b506100956100f23660046106d6565b6102d4565b34801561010357600080fd5b5061010c61030e565b6040516100ce919061093f565b34801561012557600080fd5b506100c1610314565b61009561013c366004610614565b610323565b34801561014d57600080fd5b5061009561015c3660046105f2565b610403565b6101696104d1565b6000546001600160a01b0390811691161461019f5760405162461bcd60e51b81526004016101969061090a565b60405180910390fd5b600047116101bf5760405162461bcd60e51b815260040161019690610876565b60405133904780156108fc02916000818181858888f193505050501580156101eb573d6000803e3d6000fd5b507f7084f5476618d8e60b11ef0d7d3f06914655adb8793e28ff7f018d4c76d505d56102156102c5565b4760405161022492919061075e565b60405180910390a1565b6102366104d1565b6000546001600160a01b039081169116146102635760405162461bcd60e51b81526004016101969061090a565b600080546040516001600160a01b03909116907f8be0079c531659141344cd1fd0a4f28419497f9722a3daafe3b4186f6b6457e0908390a3600080547fffffffffffffffffffffffff0000000000000000000000000000000000000000169055565b6000546001600160a01b031690565b6102dc6104d1565b6000546001600160a01b039081169116146103095760405162461bcd60e51b81526004016101969061090a565b600255565b60025481565b6001546001600160a01b031681565b81516002546103379163ffffffff6104d516565b341461034257600080fd5b6001546040517fa49172aa0000000000000000000000000000000000000000000000000000000081526001600160a01b039091169063a49172aa9061038d9085908590600401610777565b600060405180830381600087803b1580156103a757600080fd5b505af11580156103bb573d6000803e3d6000fd5b505050507f2da466a7b24304f47e87fa2e1e5a81b9831ce54fec19055ce277ca2f39ba42c46103e86102c5565b346040516103f792919061075e565b60405180910390a15050565b61040b6104d1565b6000546001600160a01b039081169116146104385760405162461bcd60e51b81526004016101969061090a565b6001600160a01b03811661045e5760405162461bcd60e51b815260040161019690610819565b600080546040516001600160a01b03808516939216917f8be0079c531659141344cd1fd0a4f28419497f9722a3daafe3b4186f6b6457e091a3600080547fffffffffffffffffffffffff0000000000000000000000000000000000000000166001600160a01b0392909216919091179055565b3390565b6000826104e457506000610512565b828202828482816104f157fe5b041461050f5760405162461bcd60e51b8152600401610196906108ad565b90505b92915050565b80356001600160a01b038116811461051257600080fd5b6000601f8381840112610540578182fd5b823561055361054e8261096f565b610948565b818152925060208084019085810160005b848110156105e6578135880189603f82011261057f57600080fd5b8381013567ffffffffffffffff81111561059857600080fd5b6105a985601f198a84011601610948565b81815260408c818486010111156105bf57600080fd5b82818501888401375060009181018601919091528552509282019290820190600101610564565b50505050505092915050565b600060208284031215610603578081fd5b61060d8383610518565b9392505050565b60008060408385031215610626578081fd5b823567ffffffffffffffff8082111561063d578283fd5b81850186601f82011261064e578384fd5b8035925061065e61054e8461096f565b80848252602080830192508084018a82838902870101111561067e578788fd5b8794505b868510156106a8576106948b82610518565b845260019490940193928101928101610682565b5090965087013593505050808211156106bf578283fd5b506106cc8582860161052f565b9150509250929050565b6000602082840312156106e7578081fd5b5035919050565b6001600160a01b0316815260200190565b60008151808452815b8181101561072457602081850181015186830182015201610708565b818111156107355782602083870101525b50601f01601f19169290920160200192915050565b6001600160a01b0391909116815260200190565b6001600160a01b03929092168252602082015260400190565b6000604082016040835280855161078e818461093f565b915060209250828701845b828110156107ba576107ac8483516106ee565b935090840190600101610799565b505050838103828501528085516107d1818461093f565b91508192508381028201848801865b8381101561080a5785830385526107f88383516106ff565b948701949250908601906001016107e0565b50909998505050505050505050565b60208082526026908201527f4f776e61626c653a206e6577206f776e657220697320746865207a65726f206160408201527f6464726573730000000000000000000000000000000000000000000000000000606082015260800190565b6020808252600c908201527f42616c616e636520697320300000000000000000000000000000000000000000604082015260600190565b60208082526021908201527f536166654d6174683a206d756c7469706c69636174696f6e206f766572666c6f60408201527f7700000000000000000000000000000000000000000000000000000000000000606082015260800190565b6020808252818101527f4f776e61626c653a2063616c6c6572206973206e6f7420746865206f776e6572604082015260600190565b90815260200190565b60405181810167ffffffffffffffff8111828210171561096757600080fd5b604052919050565b600067ffffffffffffffff821115610985578081fd5b506020908102019056fea264697066735822122024f360bef1a6ed6462f8e79587b6de24d5823e72189db813a5f4104245dfbaa064736f6c63430006060033",
  "immutableReferences": {},
  "source": "pragma solidity ^0.6.6;\npragma experimental ABIEncoderV2;\n\nimport \"@openzeppelin/contracts/access/Ownable.sol\";\nimport \"@openzeppelin/contracts/math/SafeMath.sol\";\nimport \"./ItemsERC721.sol\";\n\n/**\n * @title DSSRegistry\n * @dev An ERC721 Token see https://eips.ethereum.org/EIPS/eip-721.\n */\n contract Minter is Ownable {\n   using SafeMath for uint256;\n   ItemsERC721 public erc721;\n   uint256 public price;\n\n   event Deposited(address payee, uint256 amount);\n   event Withdrawn(address payee, uint256 amount);\n\n   constructor(address erc721_addr,uint256 _price) public {\n     erc721 = ItemsERC721(erc721_addr);\n     setPrice(_price);\n   }\n   function setPrice(uint256 _price) public onlyOwner {\n     price = _price;\n   }\n\n   function doMintMany(address[] memory to,string[] memory uris) public payable {\n     require(msg.value == price.mul(to.length));\n     erc721.mintMany(to,uris);\n     emit Deposited(owner(),msg.value);\n   }\n   function withdrawFunds() public onlyOwner {\n       require(address(this).balance > 0,\"Balance is 0\");\n       msg.sender.transfer(address(this).balance);\n       emit Withdrawn(owner(), address(this).balance);\n   }\n }\n",
  "sourcePath": "/home/henrique/projects/IzziDapps/dogs/dogs_sc/contracts/Minter.sol",
  "compiler": {
    "name": "solc",
    "version": "0.6.6+commit.6c089d02.Emscripten.clang"
  },
  "schemaVersion": "3.2.0",
  "updatedAt": "2020-10-12T14:39:32.142Z",
  "networkType": "ethereum",
  "devdoc": {
    "details": "An ERC721 Token see https://eips.ethereum.org/EIPS/eip-721.",
    "methods": {
      "owner()": {
        "details": "Returns the address of the current owner."
      },
      "renounceOwnership()": {
        "details": "Leaves the contract without owner. It will not be possible to call `onlyOwner` functions anymore. Can only be called by the current owner.     * NOTE: Renouncing ownership will leave the contract without an owner, thereby removing any functionality that is only available to the owner."
      },
      "transferOwnership(address)": {
        "details": "Transfers ownership of the contract to a new account (`newOwner`). Can only be called by the current owner."
      }
    },
    "title": "DSSRegistry"
  },
  "userdoc": {
    "methods": {}
  }
}