{
  "contractName": "Resolver",
  "abi": [
    {
      "inputs": [
        {
          "internalType": "contract ItemsERC721",
          "name": "registry",
          "type": "address"
        }
      ],
      "stateMutability": "nonpayable",
      "type": "constructor"
    },
    {
      "anonymous": false,
      "inputs": [
        {
          "indexed": true,
          "internalType": "uint256",
          "name": "preset",
          "type": "uint256"
        },
        {
          "indexed": true,
          "internalType": "string",
          "name": "key",
          "type": "string"
        },
        {
          "indexed": false,
          "internalType": "string",
          "name": "value",
          "type": "string"
        },
        {
          "indexed": true,
          "internalType": "uint256",
          "name": "tokenId",
          "type": "uint256"
        }
      ],
      "name": "Set",
      "type": "event"
    },
    {
      "anonymous": false,
      "inputs": [
        {
          "indexed": true,
          "internalType": "uint256",
          "name": "preset",
          "type": "uint256"
        },
        {
          "indexed": true,
          "internalType": "uint256",
          "name": "tokenId",
          "type": "uint256"
        }
      ],
      "name": "SetPreset",
      "type": "event"
    },
    {
      "inputs": [],
      "name": "registry",
      "outputs": [
        {
          "internalType": "address",
          "name": "",
          "type": "address"
        }
      ],
      "stateMutability": "view",
      "type": "function"
    },
    {
      "inputs": [
        {
          "internalType": "uint256",
          "name": "tokenId",
          "type": "uint256"
        }
      ],
      "name": "presetOf",
      "outputs": [
        {
          "internalType": "uint256",
          "name": "",
          "type": "uint256"
        }
      ],
      "stateMutability": "view",
      "type": "function"
    },
    {
      "inputs": [
        {
          "internalType": "uint256",
          "name": "tokenId",
          "type": "uint256"
        }
      ],
      "name": "reset",
      "outputs": [],
      "stateMutability": "nonpayable",
      "type": "function"
    },
    {
      "inputs": [
        {
          "internalType": "string",
          "name": "key",
          "type": "string"
        },
        {
          "internalType": "uint256",
          "name": "tokenId",
          "type": "uint256"
        }
      ],
      "name": "get",
      "outputs": [
        {
          "internalType": "string",
          "name": "",
          "type": "string"
        }
      ],
      "stateMutability": "view",
      "type": "function"
    },
    {
      "inputs": [
        {
          "internalType": "string[]",
          "name": "keys",
          "type": "string[]"
        },
        {
          "internalType": "uint256",
          "name": "tokenId",
          "type": "uint256"
        }
      ],
      "name": "getMany",
      "outputs": [
        {
          "internalType": "string[]",
          "name": "",
          "type": "string[]"
        }
      ],
      "stateMutability": "view",
      "type": "function"
    },
    {
      "inputs": [
        {
          "internalType": "string[]",
          "name": "keys",
          "type": "string[]"
        },
        {
          "internalType": "string[]",
          "name": "values",
          "type": "string[]"
        },
        {
          "internalType": "uint256",
          "name": "tokenId",
          "type": "uint256"
        }
      ],
      "name": "setMany",
      "outputs": [],
      "stateMutability": "nonpayable",
      "type": "function"
    }
  ],
  "bytecode": "0x608060405234801561001057600080fd5b50604051610e29380380610e2983398101604081905261002f91610054565b600080546001600160a01b0319166001600160a01b0392909216919091179055610082565b600060208284031215610065578081fd5b81516001600160a01b038116811461007b578182fd5b9392505050565b610d98806100916000396000f3fe608060405234801561001057600080fd5b50600436106100725760003560e01c80637a9eea46116100505780637a9eea46146100d55780637b103999146100f5578063ce92b33e1461010a57610072565b80631bd8cc1a146100775780631be5e7ed146100a0578063310bd74b146100c0575b600080fd5b61008a610085366004610992565b61011d565b6040516100979190610b71565b60405180910390f35b6100b36100ae366004610a91565b610363565b6040516100979190610bef565b6100d36100ce366004610ad4565b6104fd565b005b6100e86100e3366004610ad4565b6105d6565b6040516100979190610c96565b6100fd6105e8565b6040516100979190610b44565b6100d3610118366004610a07565b6105f8565b6000546040517fb3f9e4cb00000000000000000000000000000000000000000000000000000000815260609183916001600160a01b039091169063b3f9e4cb9061016b908490600401610c96565b60206040518083038186803b15801561018357600080fd5b505afa158015610197573d6000803e3d6000fd5b505050506040513d601f19601f820116820180604052508101906101bb9190610964565b6001600160a01b0316306001600160a01b0316146101f45760405162461bcd60e51b81526004016101eb90610c02565b60405180910390fd5b8360608167ffffffffffffffff8111801561020e57600080fd5b5060405190808252806020026020018201604052801561024257816020015b606081526020019060019003908161022d5790505b506000868152600260205260408120549192505b83811015610356576000878152600160209081526040808320858452909152902089898381811061028357fe5b90506020028101906102959190610c9f565b6040516102a3929190610b18565b9081526040805160209281900383018120805460026001821615610100026000190190911604601f810185900485028301850190935282825290929091908301828280156103325780601f1061030757610100808354040283529160200191610332565b820191906000526020600020905b81548152906001019060200180831161031557829003601f168201915b505050505083828151811061034357fe5b6020908102919091010152600101610256565b5090979650505050505050565b6000546040517fb3f9e4cb00000000000000000000000000000000000000000000000000000000815260609183916001600160a01b039091169063b3f9e4cb906103b1908490600401610c96565b60206040518083038186803b1580156103c957600080fd5b505afa1580156103dd573d6000803e3d6000fd5b505050506040513d601f19601f820116820180604052508101906104019190610964565b6001600160a01b0316306001600160a01b0316146104315760405162461bcd60e51b81526004016101eb90610c02565b600083815260016020908152604080832060028352818420548452909152908190209051610460908690610b28565b9081526040805160209281900383018120805460026001821615610100026000190190911604601f810185900485028301850190935282825290929091908301828280156104ef5780601f106104c4576101008083540402835291602001916104ef565b820191906000526020600020905b8154815290600101906020018083116104d257829003601f168201915b505050505091505092915050565b6000546040517f430c20810000000000000000000000000000000000000000000000000000000081526001600160a01b039091169063430c2081906105489033908590600401610b58565b60206040518083038186803b15801561056057600080fd5b505afa158015610574573d6000803e3d6000fd5b505050506040513d601f19601f820116820180604052508101906105989190610a71565b806105ad57506000546001600160a01b031633145b6105c95760405162461bcd60e51b81526004016101eb90610c39565b6105d342826106bc565b50565b60009081526002602052604090205490565b6000546001600160a01b03165b90565b6000546040517f430c20810000000000000000000000000000000000000000000000000000000081526001600160a01b039091169063430c2081906106439033908590600401610b58565b60206040518083038186803b15801561065b57600080fd5b505afa15801561066f573d6000803e3d6000fd5b505050506040513d601f19601f820116820180604052508101906106939190610a71565b61069c57600080fd5b6000818152600260205260409020546106b7908484846106fb565b505050565b60008181526002602052604080822084905551829184917fbfc300c1fa899f7ccfe35f4b00db10276968e3555c53921db20c8b82e97bc3209190a35050565b825160005b818110156107425761073a8686838151811061071857fe5b602002602001015186848151811061072c57fe5b60200260200101518661074a565b600101610700565b505050505050565b6000818152600160209081526040808320878452909152908190209051839190610775908690610b28565b908152602001604051809103902090805190602001906107969291906107ec565b5080836040516107a69190610b28565b6040518091039020857f531c34f1430b76d953b041b6ae19c2d0a9c4ed1c570242b24c147ace27ab6ef3856040516107de9190610bef565b60405180910390a450505050565b828054600181600116156101000203166002900490600052602060002090601f016020900481019282601f1061082d57805160ff191683800117855561085a565b8280016001018555821561085a579182015b8281111561085a57825182559160200191906001019061083f565b5061086692915061086a565b5090565b6105f591905b808211156108665760008155600101610870565b600082601f830112610894578081fd5b813567ffffffffffffffff8111156108aa578182fd5b60206108b98182840201610d0b565b828152925080830184820160005b848110156108f0576108de888584358a01016108fb565b835291830191908301906001016108c7565b505050505092915050565b600082601f83011261090b578081fd5b813567ffffffffffffffff811115610921578182fd5b6109346020601f19601f84011601610d0b565b915080825283602082850101111561094b57600080fd5b8060208401602084013760009082016020015292915050565b600060208284031215610975578081fd5b81516001600160a01b038116811461098b578182fd5b9392505050565b6000806000604084860312156109a6578182fd5b833567ffffffffffffffff808211156109bd578384fd5b81860187601f8201126109ce578485fd5b80359250818311156109de578485fd5b87602080850283010111156109f1578485fd5b6020908101989297509590950135945092505050565b600080600060608486031215610a1b578283fd5b833567ffffffffffffffff80821115610a32578485fd5b610a3e87838801610884565b94506020860135915080821115610a53578384fd5b50610a6086828701610884565b925050604084013590509250925092565b600060208284031215610a82578081fd5b8151801515811461098b578182fd5b60008060408385031215610aa3578182fd5b823567ffffffffffffffff811115610ab9578283fd5b610ac5858286016108fb565b95602094909401359450505050565b600060208284031215610ae5578081fd5b5035919050565b60008151808452610b04816020860160208601610d32565b601f01601f19169290920160200192915050565b6000828483379101908152919050565b60008251610b3a818460208701610d32565b9190910192915050565b6001600160a01b0391909116815260200190565b6001600160a01b03929092168252602082015260400190565b6000602080830181845280855180835260408601915060408482028701019250838701855b82811015610be2577fffffffffffffffffffffffffffffffffffffffffffffffffffffffffffffffc0888603018452610bd0858351610aec565b94509285019290850190600101610b96565b5092979650505050505050565b60006020825261098b6020830184610aec565b6020808252601d908201527f5265736f6c7665723a206973206e6f7420746865207265736f6c766572000000604082015260600190565b60208082526036908201527f4e6f74206170726f7665642c206f776e6572206f722045524337323120636f6e60408201527f747261637420746f207265736574207072657365747300000000000000000000606082015260800190565b90815260200190565b60008083357fffffffffffffffffffffffffffffffffffffffffffffffffffffffffffffffe1843603018112610cd3578283fd5b8084018035925067ffffffffffffffff831115610cee578384fd5b60200192505036819003821315610d0457600080fd5b9250929050565b60405181810167ffffffffffffffff81118282101715610d2a57600080fd5b604052919050565b60005b83811015610d4d578181015183820152602001610d35565b83811115610d5c576000848401525b5050505056fea2646970667358221220926e908ea60d6eddca098fefab2587918a55f5ea5c3855af7325ba84af186fb664736f6c63430006060033",
  "immutableReferences": {},
  "source": "pragma solidity ^0.6.6;\npragma experimental ABIEncoderV2;\nimport \"./ItemsERC721.sol\";\n\n\ncontract Resolver {\n\n    ItemsERC721 internal _registry;\n\n    event Set(uint256 indexed preset, string indexed key, string value, uint256 indexed tokenId);\n    event SetPreset(uint256 indexed preset, uint256 indexed tokenId);\n\n    // Mapping from token ID to preset id to key to value\n    mapping (uint256 => mapping (uint256 =>  mapping (string => string))) internal _records;\n\n    // Mapping from token ID to current preset id\n    mapping (uint256 => uint256) _tokenPresets;\n\n\n    constructor(ItemsERC721 registry) public {\n      _registry = registry;\n    }\n\n\n    function registry() external view returns (address) {\n        return address(_registry);\n    }\n\n    /**\n     * @dev Throws if called when not the resolver.\n     */\n    modifier whenResolver(uint256 tokenId) {\n        require(address(this) == _registry.resolverOf(tokenId),\n                \"Resolver: is not the resolver\");\n        _;\n    }\n\n    function presetOf(uint256 tokenId) external view returns (uint256) {\n        return _tokenPresets[tokenId];\n    }\n\n\n    function reset(uint256 tokenId) external {\n        require(_registry.isApprovedOrOwner(msg.sender, tokenId) || msg.sender == address(_registry),\n                \"Not aproved, owner or ERC721 contract to reset presets\");\n        _setPreset(now, tokenId);\n    }\n\n    /**\n     * @dev Function to get record.\n     * @param key The key to query the value of.\n     * @param tokenId The token id to fetch.\n     * @return The value string.\n     */\n    function get(string memory key, uint256 tokenId) public view whenResolver(tokenId) returns (string memory) {\n        return _records[tokenId][_tokenPresets[tokenId]][key];\n    }\n\n\n\n    /**\n     * @dev Function to get multiple record.\n     * @param keys The keys to query the value of.\n     * @param tokenId The token id to fetch.\n     * @return The values.\n     */\n    function getMany(string[] calldata keys, uint256 tokenId) external view whenResolver(tokenId) returns (string[] memory) {\n        uint256 keyCount = keys.length;\n        string[] memory values = new string[](keyCount);\n        uint256 preset = _tokenPresets[tokenId];\n        for (uint256 i = 0; i < keyCount; i++) {\n            values[i] = _records[tokenId][preset][keys[i]];\n        }\n        return values;\n    }\n\n    function setMany(\n        string[] memory keys,\n        string[] memory values,\n        uint256 tokenId\n    ) public {\n        require(_registry.isApprovedOrOwner(msg.sender, tokenId));\n        _setMany(_tokenPresets[tokenId], keys, values, tokenId);\n    }\n\n    function _setPreset(uint256 presetId, uint256 tokenId) internal {\n        _tokenPresets[tokenId] = presetId;\n        emit SetPreset(presetId, tokenId);\n    }\n\n    /**\n     * @dev Internal function to to set record. As opposed to set, this imposes\n     * no restrictions on msg.sender.\n     * @param preset preset to set key/values on\n     * @param key key of record to be set\n     * @param value value of record to be set\n     * @param tokenId uint256 ID of the token\n     */\n    function _set(uint256 preset, string memory key, string memory value, uint256 tokenId) internal {\n        _records[tokenId][preset][key] = value;\n        emit Set(preset, key, value, tokenId);\n    }\n\n    /**\n     * @dev Internal function to to set multiple records. As opposed to setMany, this imposes\n     * no restrictions on msg.sender.\n     * @param preset preset to set key/values on\n     * @param keys keys of record to be set\n     * @param values values of record to be set\n     * @param tokenId uint256 ID of the token\n     */\n    function _setMany(uint256 preset, string[] memory keys, string[] memory values, uint256 tokenId) internal {\n        uint256 keyCount = keys.length;\n        for (uint256 i = 0; i < keyCount; i++) {\n            _set(preset, keys[i], values[i], tokenId);\n        }\n    }\n}\n",
  "sourcePath": "/home/henrique/projects/IzziDapps/dogs/dogs_sc/contracts/Resolver.sol",
  "compiler": {
    "name": "solc",
    "version": "0.6.6+commit.6c089d02.Emscripten.clang"
  },
  "schemaVersion": "3.2.0",
  "updatedAt": "2020-08-27T18:38:32.826Z",
  "devdoc": {
    "methods": {
      "get(string,uint256)": {
        "details": "Function to get record.",
        "params": {
          "key": "The key to query the value of.",
          "tokenId": "The token id to fetch."
        },
        "returns": {
          "_0": "The value string."
        }
      },
      "getMany(string[],uint256)": {
        "details": "Function to get multiple record.",
        "params": {
          "keys": "The keys to query the value of.",
          "tokenId": "The token id to fetch."
        },
        "returns": {
          "_0": "The values."
        }
      }
    }
  },
  "userdoc": {
    "methods": {}
  }
}